{
  "contractName": "YDToken",
  "abi": [
    {
      "inputs": [],
      "stateMutability": "nonpayable",
      "type": "constructor"
    },
    {
      "anonymous": false,
      "inputs": [
        {
          "indexed": true,
          "internalType": "address",
          "name": "_owner",
          "type": "address"
        },
        {
          "indexed": true,
          "internalType": "address",
          "name": "_spender",
          "type": "address"
        },
        {
          "indexed": false,
          "internalType": "uint256",
          "name": "_value",
          "type": "uint256"
        }
      ],
      "name": "Approval",
      "type": "event"
    },
    {
      "anonymous": false,
      "inputs": [
        {
          "indexed": true,
          "internalType": "address",
          "name": "_from",
          "type": "address"
        },
        {
          "indexed": true,
          "internalType": "address",
          "name": "_to",
          "type": "address"
        },
        {
          "indexed": false,
          "internalType": "uint256",
          "name": "_value",
          "type": "uint256"
        }
      ],
      "name": "Transfer",
      "type": "event"
    },
    {
      "inputs": [],
      "name": "admin",
      "outputs": [
        {
          "internalType": "address",
          "name": "",
          "type": "address"
        }
      ],
      "stateMutability": "view",
      "type": "function",
      "constant": true
    },
    {
      "inputs": [],
      "name": "decimals",
      "outputs": [
        {
          "internalType": "uint8",
          "name": "",
          "type": "uint8"
        }
      ],
      "stateMutability": "view",
      "type": "function",
      "constant": true
    },
    {
      "inputs": [],
      "name": "totalSupply",
      "outputs": [
        {
          "internalType": "uint256",
          "name": "",
          "type": "uint256"
        }
      ],
      "stateMutability": "view",
      "type": "function",
      "constant": true
    },
    {
      "inputs": [],
      "name": "name",
      "outputs": [
        {
          "internalType": "string",
          "name": "",
          "type": "string"
        }
      ],
      "stateMutability": "pure",
      "type": "function",
      "constant": true
    },
    {
      "inputs": [],
      "name": "symbol",
      "outputs": [
        {
          "internalType": "string",
          "name": "",
          "type": "string"
        }
      ],
      "stateMutability": "pure",
      "type": "function",
      "constant": true
    },
    {
      "inputs": [
        {
          "internalType": "address",
          "name": "_owner",
          "type": "address"
        }
      ],
      "name": "balanceOf",
      "outputs": [
        {
          "internalType": "uint256",
          "name": "",
          "type": "uint256"
        }
      ],
      "stateMutability": "view",
      "type": "function",
      "constant": true
    },
    {
      "inputs": [
        {
          "internalType": "address",
          "name": "_to",
          "type": "address"
        },
        {
          "internalType": "uint256",
          "name": "_value",
          "type": "uint256"
        }
      ],
      "name": "transfer",
      "outputs": [
        {
          "internalType": "bool",
          "name": "",
          "type": "bool"
        }
      ],
      "stateMutability": "nonpayable",
      "type": "function"
    },
    {
      "inputs": [
        {
          "internalType": "address",
          "name": "_from",
          "type": "address"
        },
        {
          "internalType": "address",
          "name": "_to",
          "type": "address"
        },
        {
          "internalType": "uint256",
          "name": "_value",
          "type": "uint256"
        }
      ],
      "name": "transferFrom",
      "outputs": [
        {
          "internalType": "bool",
          "name": "",
          "type": "bool"
        }
      ],
      "stateMutability": "nonpayable",
      "type": "function"
    },
    {
      "inputs": [
        {
          "internalType": "address",
          "name": "_spender",
          "type": "address"
        },
        {
          "internalType": "uint256",
          "name": "_value",
          "type": "uint256"
        }
      ],
      "name": "approve",
      "outputs": [
        {
          "internalType": "bool",
          "name": "",
          "type": "bool"
        }
      ],
      "stateMutability": "nonpayable",
      "type": "function"
    },
    {
      "inputs": [
        {
          "internalType": "address",
          "name": "_owner",
          "type": "address"
        },
        {
          "internalType": "address",
          "name": "_spender",
          "type": "address"
        }
      ],
      "name": "allowance",
      "outputs": [
        {
          "internalType": "uint256",
          "name": "",
          "type": "uint256"
        }
      ],
      "stateMutability": "view",
      "type": "function",
      "constant": true
    },
    {
      "inputs": [
        {
          "internalType": "address",
          "name": "_spender",
          "type": "address"
        },
        {
          "internalType": "uint256",
          "name": "_value",
          "type": "uint256"
        }
      ],
      "name": "increaseAllowance",
      "outputs": [
        {
          "internalType": "bool",
          "name": "",
          "type": "bool"
        }
      ],
      "stateMutability": "nonpayable",
      "type": "function"
    },
    {
      "inputs": [
        {
          "internalType": "address",
          "name": "_spender",
          "type": "address"
        },
        {
          "internalType": "uint256",
          "name": "_value",
          "type": "uint256"
        }
      ],
      "name": "decreaseAllowance",
      "outputs": [
        {
          "internalType": "bool",
          "name": "",
          "type": "bool"
        }
      ],
      "stateMutability": "nonpayable",
      "type": "function"
    },
    {
      "inputs": [
        {
          "internalType": "uint256",
          "name": "_value",
          "type": "uint256"
        }
      ],
      "name": "burn",
      "outputs": [
        {
          "internalType": "bool",
          "name": "",
          "type": "bool"
        }
      ],
      "stateMutability": "nonpayable",
      "type": "function"
    },
    {
      "inputs": [
        {
          "internalType": "address",
          "name": "_from",
          "type": "address"
        },
        {
          "internalType": "uint256",
          "name": "_value",
          "type": "uint256"
        }
      ],
      "name": "burnFrom",
      "outputs": [
        {
          "internalType": "bool",
          "name": "",
          "type": "bool"
        }
      ],
      "stateMutability": "nonpayable",
      "type": "function"
    },
    {
      "inputs": [
        {
          "internalType": "address",
          "name": "_to",
          "type": "address"
        },
        {
          "internalType": "uint256",
          "name": "_value",
          "type": "uint256"
        }
      ],
      "name": "mint",
      "outputs": [
        {
          "internalType": "bool",
          "name": "",
          "type": "bool"
        }
      ],
      "stateMutability": "nonpayable",
      "type": "function"
    },
    {
      "inputs": [],
      "name": "buy",
      "outputs": [],
      "stateMutability": "payable",
      "type": "function",
      "payable": true
    },
    {
      "inputs": [
        {
          "internalType": "uint256",
          "name": "_value",
          "type": "uint256"
        }
      ],
      "name": "sell",
      "outputs": [
        {
          "internalType": "bool",
          "name": "",
          "type": "bool"
        }
      ],
      "stateMutability": "nonpayable",
      "type": "function"
    },
    {
      "inputs": [
        {
          "internalType": "uint256",
          "name": "_value",
          "type": "uint256"
        }
      ],
      "name": "withdraw",
      "outputs": [],
      "stateMutability": "nonpayable",
      "type": "function"
    }
  ],
  "bytecode": "0x6080604052336000806101000a81548173ffffffffffffffffffffffffffffffffffffffff021916908373ffffffffffffffffffffffffffffffffffffffff1602179055506012600060146101000a81548160ff021916908360ff160217905550600060149054906101000a900460ff16600a6200007e91906200016f565b6103e86200008d9190620002ac565b6001553480156200009d57600080fd5b50600060149054906101000a900460ff16600a620000bc91906200016f565b6103e8620000cb9190620002ac565b600260003373ffffffffffffffffffffffffffffffffffffffff1673ffffffffffffffffffffffffffffffffffffffff1681526020019081526020016000208190555062000360565b6000808291508390505b600185111562000166578086048111156200013e576200013d62000324565b5b60018516156200014e5780820291505b80810290506200015e8562000353565b94506200011e565b94509492505050565b60006200017c826200030d565b9150620001898362000317565b9250620001b87fffffffffffffffffffffffffffffffffffffffffffffffffffffffffffffffff8484620001c0565b905092915050565b600082620001d25760019050620002a5565b81620001e25760009050620002a5565b8160018114620001fb576002811462000206576200023c565b6001915050620002a5565b60ff8411156200021b576200021a62000324565b5b8360020a91508482111562000235576200023462000324565b5b50620002a5565b5060208310610133831016604e8410600b8410161715620002765782820a90508381111562000270576200026f62000324565b5b620002a5565b62000285848484600162000114565b925090508184048111156200029f576200029e62000324565b5b81810290505b9392505050565b6000620002b9826200030d565b9150620002c6836200030d565b9250817fffffffffffffffffffffffffffffffffffffffffffffffffffffffffffffffff048311821515161562000302576200030162000324565b5b828202905092915050565b6000819050919050565b600060ff82169050919050565b7f4e487b7100000000000000000000000000000000000000000000000000000000600052601160045260246000fd5b60008160011c9050919050565b61232d80620003706000396000f3fe6080604052600436106101095760003560e01c806370a0823111610095578063a6f2ae3a11610064578063a6f2ae3a146103cb578063a9059cbb146103d5578063dd62ed3e14610412578063e4849b321461044f578063f851a4401461048c57610109565b806370a08231146102e957806379cc67901461032657806395d89b4114610363578063a457c2d71461038e57610109565b80632e1a7d4d116100dc5780632e1a7d4d146101de578063313ce56714610207578063395093511461023257806340c10f191461026f57806342966c68146102ac57610109565b806306fdde031461010e578063095ea7b31461013957806318160ddd1461017657806323b872dd146101a1575b600080fd5b34801561011a57600080fd5b506101236104b7565b6040516101309190611bf4565b60405180910390f35b34801561014557600080fd5b50610160600480360381019061015b9190611938565b6104f4565b60405161016d9190611bd9565b60405180910390f35b34801561018257600080fd5b5061018b6105e6565b6040516101989190611d96565b60405180910390f35b3480156101ad57600080fd5b506101c860048036038101906101c391906118e5565b6105ec565b6040516101d59190611bd9565b60405180910390f35b3480156101ea57600080fd5b5061020560048036038101906102009190611978565b6107cb565b005b34801561021357600080fd5b5061021c6108c3565b6040516102299190611db1565b60405180910390f35b34801561023e57600080fd5b5061025960048036038101906102549190611938565b6108d6565b6040516102669190611bd9565b60405180910390f35b34801561027b57600080fd5b5061029660048036038101906102919190611938565b610acb565b6040516102a39190611bd9565b60405180910390f35b3480156102b857600080fd5b506102d360048036038101906102ce9190611978565b610b70565b6040516102e09190611bd9565b60405180910390f35b3480156102f557600080fd5b50610310600480360381019061030b9190611878565b610b85565b60405161031d9190611d96565b60405180910390f35b34801561033257600080fd5b5061034d60048036038101906103489190611938565b610bce565b60405161035a9190611bd9565b60405180910390f35b34801561036f57600080fd5b50610378610ca3565b6040516103859190611bf4565b60405180910390f35b34801561039a57600080fd5b506103b560048036038101906103b09190611938565b610ce0565b6040516103c29190611bd9565b60405180910390f35b6103d3610f94565b005b3480156103e157600080fd5b506103fc60048036038101906103f79190611938565b610fce565b6040516104099190611bd9565b60405180910390f35b34801561041e57600080fd5b50610439600480360381019061043491906118a5565b610fe5565b6040516104469190611d96565b60405180910390f35b34801561045b57600080fd5b5061047660048036038101906104719190611978565b61106c565b6040516104839190611bd9565b60405180910390f35b34801561049857600080fd5b506104a16111c8565b6040516104ae9190611bbe565b60405180910390f35b60606040518060400160405280600781526020017f5944546f6b656e00000000000000000000000000000000000000000000000000815250905090565b600081600360003373ffffffffffffffffffffffffffffffffffffffff1673ffffffffffffffffffffffffffffffffffffffff16815260200190815260200160002060008573ffffffffffffffffffffffffffffffffffffffff1673ffffffffffffffffffffffffffffffffffffffff168152602001908152602001600020819055508273ffffffffffffffffffffffffffffffffffffffff163373ffffffffffffffffffffffffffffffffffffffff167f8c5be1e5ebec7d5bd14f71427d1e84f3dd0314c0f7b2291e5b200ac8c7c3b925846040516105d49190611d96565b60405180910390a36001905092915050565b60015481565b6000600360008573ffffffffffffffffffffffffffffffffffffffff1673ffffffffffffffffffffffffffffffffffffffff16815260200190815260200160002060003373ffffffffffffffffffffffffffffffffffffffff1673ffffffffffffffffffffffffffffffffffffffff168152602001908152602001600020548211156106ad576040517f08c379a00000000000000000000000000000000000000000000000000000000081526004016106a490611d16565b60405180910390fd5b6106b88484846111ec565b81600360008673ffffffffffffffffffffffffffffffffffffffff1673ffffffffffffffffffffffffffffffffffffffff16815260200190815260200160002060003373ffffffffffffffffffffffffffffffffffffffff1673ffffffffffffffffffffffffffffffffffffffff168152602001908152602001600020546107409190611ec9565b600360008673ffffffffffffffffffffffffffffffffffffffff1673ffffffffffffffffffffffffffffffffffffffff16815260200190815260200160002060003373ffffffffffffffffffffffffffffffffffffffff1673ffffffffffffffffffffffffffffffffffffffff16815260200190815260200160002081905550600190509392505050565b60008054906101000a900473ffffffffffffffffffffffffffffffffffffffff1673ffffffffffffffffffffffffffffffffffffffff163373ffffffffffffffffffffffffffffffffffffffff1614610859576040517f08c379a000000000000000000000000000000000000000000000000000000000815260040161085090611c36565b60405180910390fd5b60008054906101000a900473ffffffffffffffffffffffffffffffffffffffff1673ffffffffffffffffffffffffffffffffffffffff166108fc829081150290604051600060405180830381858888f193505050501580156108bf573d6000803e3d6000fd5b5050565b600060149054906101000a900460ff1681565b600081600360003373ffffffffffffffffffffffffffffffffffffffff1673ffffffffffffffffffffffffffffffffffffffff16815260200190815260200160002060008573ffffffffffffffffffffffffffffffffffffffff1673ffffffffffffffffffffffffffffffffffffffff168152602001908152602001600020546109609190611de8565b600360003373ffffffffffffffffffffffffffffffffffffffff1673ffffffffffffffffffffffffffffffffffffffff16815260200190815260200160002060008573ffffffffffffffffffffffffffffffffffffffff1673ffffffffffffffffffffffffffffffffffffffff168152602001908152602001600020819055508273ffffffffffffffffffffffffffffffffffffffff163373ffffffffffffffffffffffffffffffffffffffff167f8c5be1e5ebec7d5bd14f71427d1e84f3dd0314c0f7b2291e5b200ac8c7c3b925600360003373ffffffffffffffffffffffffffffffffffffffff1673ffffffffffffffffffffffffffffffffffffffff16815260200190815260200160002060008773ffffffffffffffffffffffffffffffffffffffff1673ffffffffffffffffffffffffffffffffffffffff16815260200190815260200160002054604051610ab99190611d96565b60405180910390a36001905092915050565b60008060009054906101000a900473ffffffffffffffffffffffffffffffffffffffff1673ffffffffffffffffffffffffffffffffffffffff163373ffffffffffffffffffffffffffffffffffffffff1614610b5c576040517f08c379a0000000000000000000000000000000000000000000000000000000008152600401610b5390611cf6565b60405180910390fd5b610b6683836114d4565b6001905092915050565b6000610b7c3383611650565b60019050919050565b6000600260008373ffffffffffffffffffffffffffffffffffffffff1673ffffffffffffffffffffffffffffffffffffffff168152602001908152602001600020549050919050565b6000600360008473ffffffffffffffffffffffffffffffffffffffff1673ffffffffffffffffffffffffffffffffffffffff16815260200190815260200160002060003373ffffffffffffffffffffffffffffffffffffffff1673ffffffffffffffffffffffffffffffffffffffff16815260200190815260200160002054821115610c8f576040517f08c379a0000000000000000000000000000000000000000000000000000000008152600401610c8690611d16565b60405180910390fd5b610c998383611650565b6001905092915050565b60606040518060400160405280600381526020017f5944540000000000000000000000000000000000000000000000000000000000815250905090565b6000600360003373ffffffffffffffffffffffffffffffffffffffff1673ffffffffffffffffffffffffffffffffffffffff16815260200190815260200160002060008473ffffffffffffffffffffffffffffffffffffffff1673ffffffffffffffffffffffffffffffffffffffff16815260200190815260200160002054821115610da1576040517f08c379a0000000000000000000000000000000000000000000000000000000008152600401610d9890611c76565b60405180910390fd5b81600360003373ffffffffffffffffffffffffffffffffffffffff1673ffffffffffffffffffffffffffffffffffffffff16815260200190815260200160002060008573ffffffffffffffffffffffffffffffffffffffff1673ffffffffffffffffffffffffffffffffffffffff16815260200190815260200160002054610e299190611ec9565b600360003373ffffffffffffffffffffffffffffffffffffffff1673ffffffffffffffffffffffffffffffffffffffff16815260200190815260200160002060008573ffffffffffffffffffffffffffffffffffffffff1673ffffffffffffffffffffffffffffffffffffffff168152602001908152602001600020819055508273ffffffffffffffffffffffffffffffffffffffff163373ffffffffffffffffffffffffffffffffffffffff167f8c5be1e5ebec7d5bd14f71427d1e84f3dd0314c0f7b2291e5b200ac8c7c3b925600360003373ffffffffffffffffffffffffffffffffffffffff1673ffffffffffffffffffffffffffffffffffffffff16815260200190815260200160002060008773ffffffffffffffffffffffffffffffffffffffff1673ffffffffffffffffffffffffffffffffffffffff16815260200190815260200160002054604051610f829190611d96565b60405180910390a36001905092915050565b610fcc60008054906101000a900473ffffffffffffffffffffffffffffffffffffffff16336103e834610fc79190611e6f565b6111ec565b565b6000610fdb3384846111ec565b6001905092915050565b6000600360008473ffffffffffffffffffffffffffffffffffffffff1673ffffffffffffffffffffffffffffffffffffffff16815260200190815260200160002060008373ffffffffffffffffffffffffffffffffffffffff1673ffffffffffffffffffffffffffffffffffffffff16815260200190815260200160002054905092915050565b6000600260003373ffffffffffffffffffffffffffffffffffffffff1673ffffffffffffffffffffffffffffffffffffffff168152602001908152602001600020548211156110f0576040517f08c379a00000000000000000000000000000000000000000000000000000000081526004016110e790611cb6565b60405180910390fd5b6103e8826110fe9190611e3e565b471015611140576040517f08c379a000000000000000000000000000000000000000000000000000000000815260040161113790611cd6565b60405180910390fd5b61116b3360008054906101000a900473ffffffffffffffffffffffffffffffffffffffff16846111ec565b3373ffffffffffffffffffffffffffffffffffffffff166108fc6103e8846111939190611e3e565b9081150290604051600060405180830381858888f193505050501580156111be573d6000803e3d6000fd5b5060019050919050565b60008054906101000a900473ffffffffffffffffffffffffffffffffffffffff1681565b600073ffffffffffffffffffffffffffffffffffffffff168373ffffffffffffffffffffffffffffffffffffffff16141561125c576040517f08c379a000000000000000000000000000000000000000000000000000000000815260040161125390611d56565b60405180910390fd5b600073ffffffffffffffffffffffffffffffffffffffff168273ffffffffffffffffffffffffffffffffffffffff1614156112cc576040517f08c379a00000000000000000000000000000000000000000000000000000000081526004016112c390611c16565b60405180910390fd5b600260008473ffffffffffffffffffffffffffffffffffffffff1673ffffffffffffffffffffffffffffffffffffffff1681526020019081526020016000205481111561134e576040517f08c379a000000000000000000000000000000000000000000000000000000000815260040161134590611c96565b60405180910390fd5b80600260008573ffffffffffffffffffffffffffffffffffffffff1673ffffffffffffffffffffffffffffffffffffffff168152602001908152602001600020546113999190611ec9565b600260008573ffffffffffffffffffffffffffffffffffffffff1673ffffffffffffffffffffffffffffffffffffffff1681526020019081526020016000208190555080600260008473ffffffffffffffffffffffffffffffffffffffff1673ffffffffffffffffffffffffffffffffffffffff168152602001908152602001600020546114279190611de8565b600260008473ffffffffffffffffffffffffffffffffffffffff1673ffffffffffffffffffffffffffffffffffffffff168152602001908152602001600020819055508173ffffffffffffffffffffffffffffffffffffffff168373ffffffffffffffffffffffffffffffffffffffff167fddf252ad1be2c89b69c2b068fc378daa952ba7f163c4a11628f55a4df523b3ef836040516114c79190611d96565b60405180910390a3505050565b600073ffffffffffffffffffffffffffffffffffffffff168273ffffffffffffffffffffffffffffffffffffffff161415611544576040517f08c379a000000000000000000000000000000000000000000000000000000000815260040161153b90611d76565b60405180910390fd5b806001546115529190611de8565b60018190555080600260008473ffffffffffffffffffffffffffffffffffffffff1673ffffffffffffffffffffffffffffffffffffffff168152602001908152602001600020546115a39190611de8565b600260008473ffffffffffffffffffffffffffffffffffffffff1673ffffffffffffffffffffffffffffffffffffffff168152602001908152602001600020819055508173ffffffffffffffffffffffffffffffffffffffff16600073ffffffffffffffffffffffffffffffffffffffff167fddf252ad1be2c89b69c2b068fc378daa952ba7f163c4a11628f55a4df523b3ef836040516116449190611d96565b60405180910390a35050565b600073ffffffffffffffffffffffffffffffffffffffff168273ffffffffffffffffffffffffffffffffffffffff1614156116c0576040517f08c379a00000000000000000000000000000000000000000000000000000000081526004016116b790611d36565b60405180910390fd5b600260008373ffffffffffffffffffffffffffffffffffffffff1673ffffffffffffffffffffffffffffffffffffffff16815260200190815260200160002054811115611742576040517f08c379a000000000000000000000000000000000000000000000000000000000815260040161173990611c56565b60405180910390fd5b80600260008473ffffffffffffffffffffffffffffffffffffffff1673ffffffffffffffffffffffffffffffffffffffff1681526020019081526020016000205461178d9190611ec9565b600260008473ffffffffffffffffffffffffffffffffffffffff1673ffffffffffffffffffffffffffffffffffffffff16815260200190815260200160002081905550806001546117de9190611ec9565b600181905550600073ffffffffffffffffffffffffffffffffffffffff168273ffffffffffffffffffffffffffffffffffffffff167fddf252ad1be2c89b69c2b068fc378daa952ba7f163c4a11628f55a4df523b3ef836040516118429190611d96565b60405180910390a35050565b60008135905061185d816122c9565b92915050565b600081359050611872816122e0565b92915050565b60006020828403121561188e5761188d611fe3565b5b600061189c8482850161184e565b91505092915050565b600080604083850312156118bc576118bb611fe3565b5b60006118ca8582860161184e565b92505060206118db8582860161184e565b9150509250929050565b6000806000606084860312156118fe576118fd611fe3565b5b600061190c8682870161184e565b935050602061191d8682870161184e565b925050604061192e86828701611863565b9150509250925092565b6000806040838503121561194f5761194e611fe3565b5b600061195d8582860161184e565b925050602061196e85828601611863565b9150509250929050565b60006020828403121561198e5761198d611fe3565b5b600061199c84828501611863565b91505092915050565b6119ae81611efd565b82525050565b6119bd81611f0f565b82525050565b60006119ce82611dcc565b6119d88185611dd7565b93506119e8818560208601611f52565b6119f181611fe8565b840191505092915050565b6000611a09602383611dd7565b9150611a1482611ff9565b604082019050919050565b6000611a2c601783611dd7565b9150611a3782612048565b602082019050919050565b6000611a4f602283611dd7565b9150611a5a82612071565b604082019050919050565b6000611a72602083611dd7565b9150611a7d826120c0565b602082019050919050565b6000611a95602683611dd7565b9150611aa0826120e9565b604082019050919050565b6000611ab8601483611dd7565b9150611ac382612138565b602082019050919050565b6000611adb602883611dd7565b9150611ae682612161565b604082019050919050565b6000611afe601983611dd7565b9150611b09826121b0565b602082019050919050565b6000611b21600b83611dd7565b9150611b2c826121d9565b602082019050919050565b6000611b44602183611dd7565b9150611b4f82612202565b604082019050919050565b6000611b67602583611dd7565b9150611b7282612251565b604082019050919050565b6000611b8a601f83611dd7565b9150611b95826122a0565b602082019050919050565b611ba981611f3b565b82525050565b611bb881611f45565b82525050565b6000602082019050611bd360008301846119a5565b92915050565b6000602082019050611bee60008301846119b4565b92915050565b60006020820190508181036000830152611c0e81846119c3565b905092915050565b60006020820190508181036000830152611c2f816119fc565b9050919050565b60006020820190508181036000830152611c4f81611a1f565b9050919050565b60006020820190508181036000830152611c6f81611a42565b9050919050565b60006020820190508181036000830152611c8f81611a65565b9050919050565b60006020820190508181036000830152611caf81611a88565b9050919050565b60006020820190508181036000830152611ccf81611aab565b9050919050565b60006020820190508181036000830152611cef81611ace565b9050919050565b60006020820190508181036000830152611d0f81611af1565b9050919050565b60006020820190508181036000830152611d2f81611b14565b9050919050565b60006020820190508181036000830152611d4f81611b37565b9050919050565b60006020820190508181036000830152611d6f81611b5a565b9050919050565b60006020820190508181036000830152611d8f81611b7d565b9050919050565b6000602082019050611dab6000830184611ba0565b92915050565b6000602082019050611dc66000830184611baf565b92915050565b600081519050919050565b600082825260208201905092915050565b6000611df382611f3b565b9150611dfe83611f3b565b9250827fffffffffffffffffffffffffffffffffffffffffffffffffffffffffffffffff03821115611e3357611e32611f85565b5b828201905092915050565b6000611e4982611f3b565b9150611e5483611f3b565b925082611e6457611e63611fb4565b5b828204905092915050565b6000611e7a82611f3b565b9150611e8583611f3b565b9250817fffffffffffffffffffffffffffffffffffffffffffffffffffffffffffffffff0483118215151615611ebe57611ebd611f85565b5b828202905092915050565b6000611ed482611f3b565b9150611edf83611f3b565b925082821015611ef257611ef1611f85565b5b828203905092915050565b6000611f0882611f1b565b9050919050565b60008115159050919050565b600073ffffffffffffffffffffffffffffffffffffffff82169050919050565b6000819050919050565b600060ff82169050919050565b60005b83811015611f70578082015181840152602081019050611f55565b83811115611f7f576000848401525b50505050565b7f4e487b7100000000000000000000000000000000000000000000000000000000600052601160045260246000fd5b7f4e487b7100000000000000000000000000000000000000000000000000000000600052601260045260246000fd5b600080fd5b6000601f19601f8301169050919050565b7f45524332303a207472616e7366657220746f20746865207a65726f206164647260008201527f6573730000000000000000000000000000000000000000000000000000000000602082015250565b7f4f6e6c792061646d696e2063616e207769746864726177000000000000000000600082015250565b7f45524332303a206275726e20616d6f756e7420657863656564732062616c616e60008201527f6365000000000000000000000000000000000000000000000000000000000000602082015250565b7f416c6c6f776e6163652063616e2774206265206d616465206e65676174697665600082015250565b7f45524332303a207472616e7366657220616d6f756e742065786365656473206260008201527f616c616e63650000000000000000000000000000000000000000000000000000602082015250565b7f496e73756666696369656e742062616c616e6365000000000000000000000000600082015250565b7f536f7272792c20776520646f6e2774206861766520656e6f756768204554482060008201527f666f722074686174000000000000000000000000000000000000000000000000602082015250565b7f4f6e6c792061646d696e2063616e206d696e7420636f696e7300000000000000600082015250565b7f4e6f7420616c6c6f776564000000000000000000000000000000000000000000600082015250565b7f45524332303a206275726e2066726f6d20746865207a65726f2061646472657360008201527f7300000000000000000000000000000000000000000000000000000000000000602082015250565b7f45524332303a207472616e736665722066726f6d20746865207a65726f20616460008201527f6472657373000000000000000000000000000000000000000000000000000000602082015250565b7f45524332303a206d696e7420746f20746865207a65726f206164647265737300600082015250565b6122d281611efd565b81146122dd57600080fd5b50565b6122e981611f3b565b81146122f457600080fd5b5056fea2646970667358221220ac3df3fbf63e1dc9763a6c5df893528d233900d88a28327fefbca4228e5f5da764736f6c63430008070033",
  "immutableReferences": {},
  "source": "// SPDX-License-Identifier: GPL-3.0\r\npragma solidity ^0.8.7;\r\n\r\ncontract YDToken {\r\n\taddress public admin = msg.sender;\r\n\tuint8 public decimals = 18;\r\n\tuint256 public totalSupply = 1000 * 10 ** decimals;\r\n\r\n\tmapping (address => uint256) private _balances;\r\n\tmapping (address => mapping(address => uint256)) private _allowed;\r\n\r\n\tevent Transfer (address indexed _from, address indexed _to, uint256 _value);\r\n\tevent Approval (address indexed _owner, address indexed _spender, uint256 _value);\r\n\r\n\tconstructor () {\r\n\t\t_balances[msg.sender] = 1000 * 10 ** decimals;\r\n\t}\r\n\r\n\tfunction _transfer (address _from, address _to, uint256 _value) internal {\r\n\t\trequire(_from != address(0), \"ERC20: transfer from the zero address\");\r\n\t\trequire(_to != address(0), \"ERC20: transfer to the zero address\");\r\n\t\trequire(_value <= _balances[_from], \"ERC20: transfer amount exceeds balance\");\r\n\r\n\t\t_balances[_from] = _balances[_from] - _value;\r\n\t\t_balances[_to] = _balances[_to] + _value;\r\n\t\temit Transfer(_from, _to, _value);\r\n\t}\r\n\r\n\tfunction _burn (address _from, uint256 _value) internal {\r\n\t\trequire(_from != address(0), \"ERC20: burn from the zero address\");\r\n\t\trequire(_value <= _balances[_from], \"ERC20: burn amount exceeds balance\");\r\n\r\n\t\t_balances[_from] = _balances[_from] - _value;\r\n\t\ttotalSupply = totalSupply - _value;\r\n\t\temit Transfer(_from, address(0), _value);\r\n\t}\r\n\r\n\tfunction _mint (address _to, uint256 _value) internal {\r\n\t\trequire(_to != address(0), \"ERC20: mint to the zero address\");\r\n\r\n\t\ttotalSupply = totalSupply + _value;\r\n\t\t_balances[_to] = _balances[_to] + _value;\r\n\t\temit Transfer(address(0), _to, _value);\r\n\t}\r\n\r\n\tfunction name () public pure returns (string memory) {\r\n\t\treturn \"YDToken\";\r\n\t}\r\n\r\n\tfunction symbol () public pure returns (string memory) {\r\n\t\treturn \"YDT\";\r\n\t}\r\n\r\n\tfunction balanceOf (address _owner) public view returns (uint256) {\r\n\t\treturn _balances[_owner];\r\n\t}\r\n\r\n\tfunction transfer (address _to, uint256 _value) public returns (bool) {\r\n\t\t_transfer(msg.sender, _to, _value);\r\n\r\n\t\treturn true;\r\n\t}\r\n\r\n\tfunction transferFrom (address _from, address _to, uint _value) public returns (bool) {\r\n\t\trequire(_value <= _allowed[_from][msg.sender], \"Not allowed\");\r\n\r\n\t\t_transfer(_from, _to, _value);\r\n\t\t_allowed[_from][msg.sender] = _allowed[_from][msg.sender] - _value;\r\n\r\n\t\treturn true;\r\n\t}\r\n\r\n\tfunction approve (address _spender, uint256 _value) public returns (bool) {\r\n\t\t_allowed[msg.sender][_spender] = _value;\r\n\t\temit Approval(msg.sender, _spender, _value);\r\n\r\n\t\treturn true;\r\n\t}\r\n\r\n\tfunction allowance (address _owner, address _spender) public view returns (uint256) {\r\n\t\treturn _allowed[_owner][_spender];\r\n\t}\r\n\r\n\tfunction increaseAllowance (address _spender, uint256 _value) public returns (bool) {\r\n\t\t_allowed[msg.sender][_spender] = _allowed[msg.sender][_spender] + _value;\r\n\t\temit Approval (msg.sender, _spender, _allowed[msg.sender][_spender]);\r\n\t\t\r\n\t\treturn true;\r\n\t}\r\n\r\n\tfunction decreaseAllowance (address _spender, uint256 _value) public returns (bool) {\r\n\t\trequire(_value <= _allowed[msg.sender][_spender], \"Allownace can't be made negative\");\r\n\r\n\t\t_allowed[msg.sender][_spender] = _allowed[msg.sender][_spender] - _value;\r\n\t\temit Approval (msg.sender, _spender, _allowed[msg.sender][_spender]);\r\n\r\n\t\treturn true;\r\n\t}\r\n\r\n\tfunction burn (uint256 _value) public returns (bool) {\r\n\t\t_burn(msg.sender, _value);\r\n\r\n\t\treturn true;\r\n\t}\r\n\r\n\tfunction burnFrom (address _from, uint256 _value) public returns (bool) {\r\n\t\trequire(_value <= _allowed[_from][msg.sender], \"Not allowed\");\r\n\t\t\r\n\t\t_burn(_from, _value);\r\n\r\n\t\treturn true;\r\n\t}\r\n\r\n\tfunction mint (address _to, uint256 _value) public returns (bool) {\r\n\t\trequire(msg.sender == admin, \"Only admin can mint coins\");\r\n\t\t\r\n\t\t_mint(_to, _value);\r\n\r\n\t\treturn true;\r\n\t}\r\n\r\n\tfunction buy() payable public {\r\n\t\t_transfer(admin, msg.sender, msg.value * 1000);\r\n    }\r\n\r\n\tfunction sell(uint256 _value) public returns (bool) {\r\n\t\trequire(_value <= _balances[msg.sender], \"Insufficient balance\");\r\n\t\trequire(address(this).balance >= _value / 1000, \"Sorry, we don't have enough ETH for that\");\r\n\r\n\t\t_transfer(msg.sender, admin, _value);\r\n\t\tpayable(msg.sender).transfer(_value / 1000);\r\n\r\n\t\treturn true;\r\n\t}\r\n\r\n\tfunction withdraw(uint256 _value) public {\r\n\t\trequire(msg.sender == admin, \"Only admin can withdraw\");\r\n\t\tpayable(admin).transfer(_value);\r\n\t}\r\n}",
  "sourcePath": "D:\\sem7\\bct-lab\\ydtoken\\contracts\\YDToken.sol",
  "compiler": {
    "name": "solc",
    "version": "0.8.7+commit.e28d00a7.Emscripten.clang"
  },
  "schemaVersion": "3.4.3",
  "updatedAt": "2021-10-02T09:35:20.629Z",
  "networkType": "ethereum",
  "devdoc": {
    "kind": "dev",
    "methods": {},
    "version": 1
  },
  "userdoc": {
    "kind": "user",
    "methods": {},
    "version": 1
  }
}