{
  "contractName": "YDToken",
  "abi": [
    {
      "inputs": [],
      "stateMutability": "nonpayable",
      "type": "constructor"
    },
    {
      "anonymous": false,
      "inputs": [
        {
          "indexed": true,
          "internalType": "address",
          "name": "_owner",
          "type": "address"
        },
        {
          "indexed": true,
          "internalType": "address",
          "name": "_spender",
          "type": "address"
        },
        {
          "indexed": false,
          "internalType": "uint256",
          "name": "_value",
          "type": "uint256"
        }
      ],
      "name": "Approval",
      "type": "event"
    },
    {
      "anonymous": false,
      "inputs": [
        {
          "indexed": true,
          "internalType": "address",
          "name": "_account",
          "type": "address"
        },
        {
          "indexed": false,
          "internalType": "uint256",
          "name": "_value",
          "type": "uint256"
        }
      ],
      "name": "Burn",
      "type": "event"
    },
    {
      "anonymous": false,
      "inputs": [
        {
          "indexed": true,
          "internalType": "address",
          "name": "_account",
          "type": "address"
        },
        {
          "indexed": false,
          "internalType": "uint256",
          "name": "_value",
          "type": "uint256"
        }
      ],
      "name": "Mint",
      "type": "event"
    },
    {
      "anonymous": false,
      "inputs": [
        {
          "indexed": true,
          "internalType": "address",
          "name": "_from",
          "type": "address"
        },
        {
          "indexed": true,
          "internalType": "address",
          "name": "_to",
          "type": "address"
        },
        {
          "indexed": false,
          "internalType": "uint256",
          "name": "_value",
          "type": "uint256"
        }
      ],
      "name": "Transfer",
      "type": "event"
    },
    {
      "inputs": [],
      "name": "admin",
      "outputs": [
        {
          "internalType": "address",
          "name": "",
          "type": "address"
        }
      ],
      "stateMutability": "view",
      "type": "function",
      "constant": true
    },
    {
      "inputs": [],
      "name": "decimals",
      "outputs": [
        {
          "internalType": "uint8",
          "name": "",
          "type": "uint8"
        }
      ],
      "stateMutability": "view",
      "type": "function",
      "constant": true
    },
    {
      "inputs": [],
      "name": "totalSupply",
      "outputs": [
        {
          "internalType": "uint256",
          "name": "",
          "type": "uint256"
        }
      ],
      "stateMutability": "view",
      "type": "function",
      "constant": true
    },
    {
      "inputs": [],
      "name": "name",
      "outputs": [
        {
          "internalType": "string",
          "name": "",
          "type": "string"
        }
      ],
      "stateMutability": "pure",
      "type": "function",
      "constant": true
    },
    {
      "inputs": [],
      "name": "symbol",
      "outputs": [
        {
          "internalType": "string",
          "name": "",
          "type": "string"
        }
      ],
      "stateMutability": "pure",
      "type": "function",
      "constant": true
    },
    {
      "inputs": [
        {
          "internalType": "address",
          "name": "_owner",
          "type": "address"
        }
      ],
      "name": "balanceOf",
      "outputs": [
        {
          "internalType": "uint256",
          "name": "",
          "type": "uint256"
        }
      ],
      "stateMutability": "view",
      "type": "function",
      "constant": true
    },
    {
      "inputs": [
        {
          "internalType": "address",
          "name": "_to",
          "type": "address"
        },
        {
          "internalType": "uint256",
          "name": "_value",
          "type": "uint256"
        }
      ],
      "name": "transfer",
      "outputs": [
        {
          "internalType": "bool",
          "name": "",
          "type": "bool"
        }
      ],
      "stateMutability": "nonpayable",
      "type": "function"
    },
    {
      "inputs": [
        {
          "internalType": "address",
          "name": "_from",
          "type": "address"
        },
        {
          "internalType": "address",
          "name": "_to",
          "type": "address"
        },
        {
          "internalType": "uint256",
          "name": "_value",
          "type": "uint256"
        }
      ],
      "name": "transferFrom",
      "outputs": [
        {
          "internalType": "bool",
          "name": "",
          "type": "bool"
        }
      ],
      "stateMutability": "nonpayable",
      "type": "function"
    },
    {
      "inputs": [
        {
          "internalType": "address",
          "name": "_spender",
          "type": "address"
        },
        {
          "internalType": "uint256",
          "name": "_value",
          "type": "uint256"
        }
      ],
      "name": "approve",
      "outputs": [
        {
          "internalType": "bool",
          "name": "",
          "type": "bool"
        }
      ],
      "stateMutability": "nonpayable",
      "type": "function"
    },
    {
      "inputs": [
        {
          "internalType": "address",
          "name": "_owner",
          "type": "address"
        },
        {
          "internalType": "address",
          "name": "_spender",
          "type": "address"
        }
      ],
      "name": "allowance",
      "outputs": [
        {
          "internalType": "uint256",
          "name": "",
          "type": "uint256"
        }
      ],
      "stateMutability": "view",
      "type": "function",
      "constant": true
    },
    {
      "inputs": [
        {
          "internalType": "address",
          "name": "_spender",
          "type": "address"
        },
        {
          "internalType": "uint256",
          "name": "_value",
          "type": "uint256"
        }
      ],
      "name": "increaseAllowance",
      "outputs": [
        {
          "internalType": "bool",
          "name": "",
          "type": "bool"
        }
      ],
      "stateMutability": "nonpayable",
      "type": "function"
    },
    {
      "inputs": [
        {
          "internalType": "address",
          "name": "_spender",
          "type": "address"
        },
        {
          "internalType": "uint256",
          "name": "_value",
          "type": "uint256"
        }
      ],
      "name": "decreaseAllowance",
      "outputs": [
        {
          "internalType": "bool",
          "name": "",
          "type": "bool"
        }
      ],
      "stateMutability": "nonpayable",
      "type": "function"
    },
    {
      "inputs": [
        {
          "internalType": "uint256",
          "name": "_value",
          "type": "uint256"
        }
      ],
      "name": "burn",
      "outputs": [
        {
          "internalType": "bool",
          "name": "",
          "type": "bool"
        }
      ],
      "stateMutability": "nonpayable",
      "type": "function"
    },
    {
      "inputs": [
        {
          "internalType": "address",
          "name": "_from",
          "type": "address"
        },
        {
          "internalType": "uint256",
          "name": "_value",
          "type": "uint256"
        }
      ],
      "name": "burnFrom",
      "outputs": [
        {
          "internalType": "bool",
          "name": "",
          "type": "bool"
        }
      ],
      "stateMutability": "nonpayable",
      "type": "function"
    },
    {
      "inputs": [
        {
          "internalType": "address",
          "name": "_to",
          "type": "address"
        },
        {
          "internalType": "uint256",
          "name": "_value",
          "type": "uint256"
        }
      ],
      "name": "mint",
      "outputs": [
        {
          "internalType": "bool",
          "name": "",
          "type": "bool"
        }
      ],
      "stateMutability": "nonpayable",
      "type": "function"
    }
  ],
  "bytecode": "0x6080604052336000806101000a81548173ffffffffffffffffffffffffffffffffffffffff021916908373ffffffffffffffffffffffffffffffffffffffff1602179055506012600060146101000a81548160ff021916908360ff160217905550600060149054906101000a900460ff16600a6200007e91906200016f565b6103e86200008d9190620002ac565b6001553480156200009d57600080fd5b50600060149054906101000a900460ff16600a620000bc91906200016f565b6103e8620000cb9190620002ac565b600260003373ffffffffffffffffffffffffffffffffffffffff1673ffffffffffffffffffffffffffffffffffffffff1681526020019081526020016000208190555062000360565b6000808291508390505b600185111562000166578086048111156200013e576200013d62000324565b5b60018516156200014e5780820291505b80810290506200015e8562000353565b94506200011e565b94509492505050565b60006200017c826200030d565b9150620001898362000317565b9250620001b87fffffffffffffffffffffffffffffffffffffffffffffffffffffffffffffffff8484620001c0565b905092915050565b600082620001d25760019050620002a5565b81620001e25760009050620002a5565b8160018114620001fb576002811462000206576200023c565b6001915050620002a5565b60ff8411156200021b576200021a62000324565b5b8360020a91508482111562000235576200023462000324565b5b50620002a5565b5060208310610133831016604e8410600b8410161715620002765782820a90508381111562000270576200026f62000324565b5b620002a5565b62000285848484600162000114565b925090508184048111156200029f576200029e62000324565b5b81810290505b9392505050565b6000620002b9826200030d565b9150620002c6836200030d565b9250817fffffffffffffffffffffffffffffffffffffffffffffffffffffffffffffffff048311821515161562000302576200030162000324565b5b828202905092915050565b6000819050919050565b600060ff82169050919050565b7f4e487b7100000000000000000000000000000000000000000000000000000000600052601160045260246000fd5b60008160011c9050919050565b611b9e80620003706000396000f3fe608060405234801561001057600080fd5b50600436106100f55760003560e01c806342966c6811610097578063a457c2d711610066578063a457c2d7146102c2578063a9059cbb146102f2578063dd62ed3e14610322578063f851a44014610352576100f5565b806342966c681461021457806370a082311461024457806379cc67901461027457806395d89b41146102a4576100f5565b806323b872dd116100d357806323b872dd14610166578063313ce5671461019657806339509351146101b457806340c10f19146101e4576100f5565b806306fdde03146100fa578063095ea7b31461011857806318160ddd14610148575b600080fd5b610102610370565b60405161010f919061184b565b60405180910390f35b610132600480360381019061012d91906116a7565b6103ad565b60405161013f9190611830565b60405180910390f35b61015061049f565b60405161015d91906118ed565b60405180910390f35b610180600480360381019061017b9190611654565b6104a5565b60405161018d9190611830565b60405180910390f35b61019e61087c565b6040516101ab9190611908565b60405180910390f35b6101ce60048036038101906101c991906116a7565b61088f565b6040516101db9190611830565b60405180910390f35b6101fe60048036038101906101f991906116a7565b610a84565b60405161020b9190611830565b60405180910390f35b61022e600480360381019061022991906116e7565b610c0f565b60405161023b9190611830565b60405180910390f35b61025e600480360381019061025991906115e7565b610d8c565b60405161026b91906118ed565b60405180910390f35b61028e600480360381019061028991906116a7565b610dd5565b60405161029b9190611830565b60405180910390f35b6102ac611012565b6040516102b9919061184b565b60405180910390f35b6102dc60048036038101906102d791906116a7565b61104f565b6040516102e99190611830565b60405180910390f35b61030c600480360381019061030791906116a7565b611303565b6040516103199190611830565b60405180910390f35b61033c60048036038101906103379190611614565b611512565b60405161034991906118ed565b60405180910390f35b61035a611599565b6040516103679190611815565b60405180910390f35b60606040518060400160405280600781526020017f5944546f6b656e00000000000000000000000000000000000000000000000000815250905090565b600081600360003373ffffffffffffffffffffffffffffffffffffffff1673ffffffffffffffffffffffffffffffffffffffff16815260200190815260200160002060008573ffffffffffffffffffffffffffffffffffffffff1673ffffffffffffffffffffffffffffffffffffffff168152602001908152602001600020819055508273ffffffffffffffffffffffffffffffffffffffff163373ffffffffffffffffffffffffffffffffffffffff167f8c5be1e5ebec7d5bd14f71427d1e84f3dd0314c0f7b2291e5b200ac8c7c3b9258460405161048d91906118ed565b60405180910390a36001905092915050565b60015481565b6000600360008573ffffffffffffffffffffffffffffffffffffffff1673ffffffffffffffffffffffffffffffffffffffff16815260200190815260200160002060003373ffffffffffffffffffffffffffffffffffffffff1673ffffffffffffffffffffffffffffffffffffffff16815260200190815260200160002054821115610566576040517f08c379a000000000000000000000000000000000000000000000000000000000815260040161055d906118cd565b60405180910390fd5b600260008573ffffffffffffffffffffffffffffffffffffffff1673ffffffffffffffffffffffffffffffffffffffff168152602001908152602001600020548211156105e8576040517f08c379a00000000000000000000000000000000000000000000000000000000081526004016105df9061188d565b60405180910390fd5b81600260008673ffffffffffffffffffffffffffffffffffffffff1673ffffffffffffffffffffffffffffffffffffffff168152602001908152602001600020546106339190611995565b600260008673ffffffffffffffffffffffffffffffffffffffff1673ffffffffffffffffffffffffffffffffffffffff1681526020019081526020016000208190555081600260008573ffffffffffffffffffffffffffffffffffffffff1673ffffffffffffffffffffffffffffffffffffffff168152602001908152602001600020546106c1919061193f565b600260008573ffffffffffffffffffffffffffffffffffffffff1673ffffffffffffffffffffffffffffffffffffffff1681526020019081526020016000208190555081600360008673ffffffffffffffffffffffffffffffffffffffff1673ffffffffffffffffffffffffffffffffffffffff16815260200190815260200160002060003373ffffffffffffffffffffffffffffffffffffffff1673ffffffffffffffffffffffffffffffffffffffff1681526020019081526020016000205461078c9190611995565b600360008673ffffffffffffffffffffffffffffffffffffffff1673ffffffffffffffffffffffffffffffffffffffff16815260200190815260200160002060003373ffffffffffffffffffffffffffffffffffffffff1673ffffffffffffffffffffffffffffffffffffffff168152602001908152602001600020819055508273ffffffffffffffffffffffffffffffffffffffff168473ffffffffffffffffffffffffffffffffffffffff167fddf252ad1be2c89b69c2b068fc378daa952ba7f163c4a11628f55a4df523b3ef8460405161086991906118ed565b60405180910390a3600190509392505050565b600060149054906101000a900460ff1681565b600081600360003373ffffffffffffffffffffffffffffffffffffffff1673ffffffffffffffffffffffffffffffffffffffff16815260200190815260200160002060008573ffffffffffffffffffffffffffffffffffffffff1673ffffffffffffffffffffffffffffffffffffffff16815260200190815260200160002054610919919061193f565b600360003373ffffffffffffffffffffffffffffffffffffffff1673ffffffffffffffffffffffffffffffffffffffff16815260200190815260200160002060008573ffffffffffffffffffffffffffffffffffffffff1673ffffffffffffffffffffffffffffffffffffffff168152602001908152602001600020819055508273ffffffffffffffffffffffffffffffffffffffff163373ffffffffffffffffffffffffffffffffffffffff167f8c5be1e5ebec7d5bd14f71427d1e84f3dd0314c0f7b2291e5b200ac8c7c3b925600360003373ffffffffffffffffffffffffffffffffffffffff1673ffffffffffffffffffffffffffffffffffffffff16815260200190815260200160002060008773ffffffffffffffffffffffffffffffffffffffff1673ffffffffffffffffffffffffffffffffffffffff16815260200190815260200160002054604051610a7291906118ed565b60405180910390a36001905092915050565b60008060009054906101000a900473ffffffffffffffffffffffffffffffffffffffff1673ffffffffffffffffffffffffffffffffffffffff163373ffffffffffffffffffffffffffffffffffffffff1614610b15576040517f08c379a0000000000000000000000000000000000000000000000000000000008152600401610b0c906118ad565b60405180910390fd5b81600154610b23919061193f565b60018190555081600260008573ffffffffffffffffffffffffffffffffffffffff1673ffffffffffffffffffffffffffffffffffffffff16815260200190815260200160002054610b74919061193f565b600260008573ffffffffffffffffffffffffffffffffffffffff1673ffffffffffffffffffffffffffffffffffffffff168152602001908152602001600020819055508273ffffffffffffffffffffffffffffffffffffffff167f0f6798a560793a54c3bcfe86a93cde1e73087d944c0ea20544137d412139688583604051610bfd91906118ed565b60405180910390a26001905092915050565b6000600260003373ffffffffffffffffffffffffffffffffffffffff1673ffffffffffffffffffffffffffffffffffffffff16815260200190815260200160002054821115610c93576040517f08c379a0000000000000000000000000000000000000000000000000000000008152600401610c8a9061188d565b60405180910390fd5b81600154610ca19190611995565b60018190555081600260003373ffffffffffffffffffffffffffffffffffffffff1673ffffffffffffffffffffffffffffffffffffffff16815260200190815260200160002054610cf29190611995565b600260003373ffffffffffffffffffffffffffffffffffffffff1673ffffffffffffffffffffffffffffffffffffffff168152602001908152602001600020819055503373ffffffffffffffffffffffffffffffffffffffff167fcc16f5dbb4873280815c1ee09dbd06736cffcc184412cf7a71a0fdb75d397ca583604051610d7b91906118ed565b60405180910390a260019050919050565b6000600260008373ffffffffffffffffffffffffffffffffffffffff1673ffffffffffffffffffffffffffffffffffffffff168152602001908152602001600020549050919050565b6000600360008473ffffffffffffffffffffffffffffffffffffffff1673ffffffffffffffffffffffffffffffffffffffff16815260200190815260200160002060003373ffffffffffffffffffffffffffffffffffffffff1673ffffffffffffffffffffffffffffffffffffffff16815260200190815260200160002054821115610e96576040517f08c379a0000000000000000000000000000000000000000000000000000000008152600401610e8d906118cd565b60405180910390fd5b600260008473ffffffffffffffffffffffffffffffffffffffff1673ffffffffffffffffffffffffffffffffffffffff16815260200190815260200160002054821115610f18576040517f08c379a0000000000000000000000000000000000000000000000000000000008152600401610f0f9061188d565b60405180910390fd5b81600154610f269190611995565b60018190555081600260008573ffffffffffffffffffffffffffffffffffffffff1673ffffffffffffffffffffffffffffffffffffffff16815260200190815260200160002054610f779190611995565b600260008573ffffffffffffffffffffffffffffffffffffffff1673ffffffffffffffffffffffffffffffffffffffff168152602001908152602001600020819055508273ffffffffffffffffffffffffffffffffffffffff167fcc16f5dbb4873280815c1ee09dbd06736cffcc184412cf7a71a0fdb75d397ca58360405161100091906118ed565b60405180910390a26001905092915050565b60606040518060400160405280600381526020017f5944540000000000000000000000000000000000000000000000000000000000815250905090565b6000600360003373ffffffffffffffffffffffffffffffffffffffff1673ffffffffffffffffffffffffffffffffffffffff16815260200190815260200160002060008473ffffffffffffffffffffffffffffffffffffffff1673ffffffffffffffffffffffffffffffffffffffff16815260200190815260200160002054821115611110576040517f08c379a00000000000000000000000000000000000000000000000000000000081526004016111079061186d565b60405180910390fd5b81600360003373ffffffffffffffffffffffffffffffffffffffff1673ffffffffffffffffffffffffffffffffffffffff16815260200190815260200160002060008573ffffffffffffffffffffffffffffffffffffffff1673ffffffffffffffffffffffffffffffffffffffff168152602001908152602001600020546111989190611995565b600360003373ffffffffffffffffffffffffffffffffffffffff1673ffffffffffffffffffffffffffffffffffffffff16815260200190815260200160002060008573ffffffffffffffffffffffffffffffffffffffff1673ffffffffffffffffffffffffffffffffffffffff168152602001908152602001600020819055508273ffffffffffffffffffffffffffffffffffffffff163373ffffffffffffffffffffffffffffffffffffffff167f8c5be1e5ebec7d5bd14f71427d1e84f3dd0314c0f7b2291e5b200ac8c7c3b925600360003373ffffffffffffffffffffffffffffffffffffffff1673ffffffffffffffffffffffffffffffffffffffff16815260200190815260200160002060008773ffffffffffffffffffffffffffffffffffffffff1673ffffffffffffffffffffffffffffffffffffffff168152602001908152602001600020546040516112f191906118ed565b60405180910390a36001905092915050565b6000600260003373ffffffffffffffffffffffffffffffffffffffff1673ffffffffffffffffffffffffffffffffffffffff16815260200190815260200160002054821115611387576040517f08c379a000000000000000000000000000000000000000000000000000000000815260040161137e9061188d565b60405180910390fd5b81600260003373ffffffffffffffffffffffffffffffffffffffff1673ffffffffffffffffffffffffffffffffffffffff168152602001908152602001600020546113d29190611995565b600260003373ffffffffffffffffffffffffffffffffffffffff1673ffffffffffffffffffffffffffffffffffffffff1681526020019081526020016000208190555081600260008573ffffffffffffffffffffffffffffffffffffffff1673ffffffffffffffffffffffffffffffffffffffff16815260200190815260200160002054611460919061193f565b600260008573ffffffffffffffffffffffffffffffffffffffff1673ffffffffffffffffffffffffffffffffffffffff168152602001908152602001600020819055508273ffffffffffffffffffffffffffffffffffffffff163373ffffffffffffffffffffffffffffffffffffffff167fddf252ad1be2c89b69c2b068fc378daa952ba7f163c4a11628f55a4df523b3ef8460405161150091906118ed565b60405180910390a36001905092915050565b6000600360008473ffffffffffffffffffffffffffffffffffffffff1673ffffffffffffffffffffffffffffffffffffffff16815260200190815260200160002060008373ffffffffffffffffffffffffffffffffffffffff1673ffffffffffffffffffffffffffffffffffffffff16815260200190815260200160002054905092915050565b60008054906101000a900473ffffffffffffffffffffffffffffffffffffffff1681565b6000813590506115cc81611b3a565b92915050565b6000813590506115e181611b51565b92915050565b6000602082840312156115fd576115fc611a80565b5b600061160b848285016115bd565b91505092915050565b6000806040838503121561162b5761162a611a80565b5b6000611639858286016115bd565b925050602061164a858286016115bd565b9150509250929050565b60008060006060848603121561166d5761166c611a80565b5b600061167b868287016115bd565b935050602061168c868287016115bd565b925050604061169d868287016115d2565b9150509250925092565b600080604083850312156116be576116bd611a80565b5b60006116cc858286016115bd565b92505060206116dd858286016115d2565b9150509250929050565b6000602082840312156116fd576116fc611a80565b5b600061170b848285016115d2565b91505092915050565b61171d816119c9565b82525050565b61172c816119db565b82525050565b600061173d82611923565b611747818561192e565b9350611757818560208601611a1e565b61176081611a85565b840191505092915050565b600061177860208361192e565b915061178382611a96565b602082019050919050565b600061179b60148361192e565b91506117a682611abf565b602082019050919050565b60006117be60198361192e565b91506117c982611ae8565b602082019050919050565b60006117e1600b8361192e565b91506117ec82611b11565b602082019050919050565b61180081611a07565b82525050565b61180f81611a11565b82525050565b600060208201905061182a6000830184611714565b92915050565b60006020820190506118456000830184611723565b92915050565b600060208201905081810360008301526118658184611732565b905092915050565b600060208201905081810360008301526118868161176b565b9050919050565b600060208201905081810360008301526118a68161178e565b9050919050565b600060208201905081810360008301526118c6816117b1565b9050919050565b600060208201905081810360008301526118e6816117d4565b9050919050565b600060208201905061190260008301846117f7565b92915050565b600060208201905061191d6000830184611806565b92915050565b600081519050919050565b600082825260208201905092915050565b600061194a82611a07565b915061195583611a07565b9250827fffffffffffffffffffffffffffffffffffffffffffffffffffffffffffffffff0382111561198a57611989611a51565b5b828201905092915050565b60006119a082611a07565b91506119ab83611a07565b9250828210156119be576119bd611a51565b5b828203905092915050565b60006119d4826119e7565b9050919050565b60008115159050919050565b600073ffffffffffffffffffffffffffffffffffffffff82169050919050565b6000819050919050565b600060ff82169050919050565b60005b83811015611a3c578082015181840152602081019050611a21565b83811115611a4b576000848401525b50505050565b7f4e487b7100000000000000000000000000000000000000000000000000000000600052601160045260246000fd5b600080fd5b6000601f19601f8301169050919050565b7f416c6c6f776e6163652063616e2774206265206d616465206e65676174697665600082015250565b7f496e73756666696369656e742062616c616e6365000000000000000000000000600082015250565b7f4f6e6c792061646d696e2063616e206d696e7420636f696e7300000000000000600082015250565b7f4e6f7420616c6c6f776564000000000000000000000000000000000000000000600082015250565b611b43816119c9565b8114611b4e57600080fd5b50565b611b5a81611a07565b8114611b6557600080fd5b5056fea26469706673582212200c47d5b42f40540e9cb097636f15df2d49b2fa4212fa06b34ab55e96df83ba9d64736f6c63430008070033",
  "immutableReferences": {},
  "source": "// SPDX-License-Identifier: GPL-3.0\r\npragma solidity ^0.8.7;\r\n\r\ncontract YDToken {\r\n\taddress public admin = msg.sender;\r\n\tuint8 public decimals = 18;\r\n\tuint256 public totalSupply = 1000 * 10 ** decimals;\r\n\r\n\tmapping (address => uint256) private _balances;\r\n\tmapping (address => mapping(address => uint256)) private _allowed;\r\n\r\n\tevent Transfer (address indexed _from, address indexed _to, uint256 _value);\r\n\tevent Approval (address indexed _owner, address indexed _spender, uint256 _value);\r\n\tevent Burn (address indexed _account, uint256 _value);\r\n\tevent Mint (address indexed _account, uint256 _value);\r\n\r\n\tconstructor () {\r\n\t\t_balances[msg.sender] = 1000 * 10 ** decimals;\r\n\t}\r\n\r\n\tfunction name () public pure returns (string memory) {\r\n\t\treturn \"YDToken\";\r\n\t}\r\n\r\n\tfunction symbol () public pure returns (string memory) {\r\n\t\treturn \"YDT\";\r\n\t}\r\n\r\n\tfunction balanceOf (address _owner) public view returns (uint256) {\r\n\t\treturn _balances[_owner];\r\n\t}\r\n\r\n\tfunction transfer (address _to, uint256 _value) public returns (bool) {\r\n\t\trequire(_value <= _balances[msg.sender], \"Insufficient balance\");\r\n\r\n\t\t_balances[msg.sender] = _balances[msg.sender] - _value;\r\n\t\t_balances[_to] = _balances[_to] + _value;\r\n\t\temit Transfer(msg.sender, _to, _value);\r\n\r\n\t\treturn true;\r\n\t}\r\n\r\n\tfunction transferFrom (address _from, address _to, uint _value) public returns (bool) {\r\n\t\trequire(_value <= _allowed[_from][msg.sender], \"Not allowed\");\r\n\t\trequire(_value <= _balances[_from], \"Insufficient balance\");\r\n\r\n\t\t_balances[_from] = _balances[_from] - _value;\r\n\t\t_balances[_to] = _balances[_to] + _value;\r\n\t\t_allowed[_from][msg.sender] = _allowed[_from][msg.sender] - _value;\r\n\t\temit Transfer(_from, _to, _value);\r\n\r\n\t\treturn true;\r\n\t}\r\n\r\n\tfunction approve (address _spender, uint256 _value) public returns (bool) {\r\n\t\t_allowed[msg.sender][_spender] = _value;\r\n\t\temit Approval(msg.sender, _spender, _value);\r\n\r\n\t\treturn true;\r\n\t}\r\n\r\n\tfunction allowance (address _owner, address _spender) public view returns (uint256) {\r\n\t\treturn _allowed[_owner][_spender];\r\n\t}\r\n\r\n\tfunction increaseAllowance (address _spender, uint256 _value) public returns (bool) {\r\n\t\t_allowed[msg.sender][_spender] = _allowed[msg.sender][_spender] + _value;\r\n\t\temit Approval (msg.sender, _spender, _allowed[msg.sender][_spender]);\r\n\t\t\r\n\t\treturn true;\r\n\t}\r\n\r\n\tfunction decreaseAllowance (address _spender, uint256 _value) public returns (bool) {\r\n\t\trequire(_value <= _allowed[msg.sender][_spender], \"Allownace can't be made negative\");\r\n\r\n\t\t_allowed[msg.sender][_spender] = _allowed[msg.sender][_spender] - _value;\r\n\t\temit Approval (msg.sender, _spender, _allowed[msg.sender][_spender]);\r\n\r\n\t\treturn true;\r\n\t}\r\n\r\n\tfunction burn (uint256 _value) public returns (bool) {\r\n\t\trequire(_value <= _balances[msg.sender], \"Insufficient balance\");\r\n\r\n\t\ttotalSupply = totalSupply - _value;\r\n\t\t_balances[msg.sender] = _balances[msg.sender] - _value;\r\n\t\temit Burn(msg.sender, _value);\r\n\r\n\t\treturn true;\r\n\t}\r\n\r\n\tfunction burnFrom (address _from, uint256 _value) public returns (bool) {\r\n\t\trequire(_value <= _allowed[_from][msg.sender], \"Not allowed\");\r\n\t\trequire(_value <= _balances[_from], \"Insufficient balance\");\r\n\r\n\t\ttotalSupply = totalSupply - _value;\r\n\t\t_balances[_from] = _balances[_from] - _value;\r\n\t\temit Burn(_from, _value);\r\n\r\n\t\treturn true;\r\n\t}\r\n\r\n\tfunction mint (address _to, uint256 _value) public returns (bool) {\r\n\t\trequire(msg.sender == admin, \"Only admin can mint coins\");\r\n\t\ttotalSupply = totalSupply + _value;\r\n\t\t_balances[_to] = _balances[_to] + _value;\r\n\t\temit Mint (_to, _value);\r\n\r\n\t\treturn true;\r\n\t}\r\n}",
  "sourcePath": "D:\\sem7\\bct-lab\\test\\token\\contracts\\YDToken.sol",
  "compiler": {
    "name": "solc",
    "version": "0.8.7+commit.e28d00a7.Emscripten.clang"
  },
  "schemaVersion": "3.4.3",
  "updatedAt": "2021-09-30T15:10:05.259Z",
  "networkType": "ethereum",
  "devdoc": {
    "kind": "dev",
    "methods": {},
    "version": 1
  },
  "userdoc": {
    "kind": "user",
    "methods": {},
    "version": 1
  }
}