{
  "contractName": "YDToken",
  "abi": [
    {
      "inputs": [],
      "stateMutability": "nonpayable",
      "type": "constructor"
    },
    {
      "anonymous": false,
      "inputs": [
        {
          "indexed": true,
          "internalType": "address",
          "name": "_owner",
          "type": "address"
        },
        {
          "indexed": true,
          "internalType": "address",
          "name": "_spender",
          "type": "address"
        },
        {
          "indexed": false,
          "internalType": "uint256",
          "name": "_value",
          "type": "uint256"
        }
      ],
      "name": "Approval",
      "type": "event"
    },
    {
      "anonymous": false,
      "inputs": [
        {
          "indexed": true,
          "internalType": "address",
          "name": "_from",
          "type": "address"
        },
        {
          "indexed": true,
          "internalType": "address",
          "name": "_to",
          "type": "address"
        },
        {
          "indexed": false,
          "internalType": "uint256",
          "name": "_value",
          "type": "uint256"
        }
      ],
      "name": "Transfer",
      "type": "event"
    },
    {
      "inputs": [],
      "name": "admin",
      "outputs": [
        {
          "internalType": "address",
          "name": "",
          "type": "address"
        }
      ],
      "stateMutability": "view",
      "type": "function",
      "constant": true
    },
    {
      "inputs": [],
      "name": "decimals",
      "outputs": [
        {
          "internalType": "uint8",
          "name": "",
          "type": "uint8"
        }
      ],
      "stateMutability": "view",
      "type": "function",
      "constant": true
    },
    {
      "inputs": [],
      "name": "totalSupply",
      "outputs": [
        {
          "internalType": "uint256",
          "name": "",
          "type": "uint256"
        }
      ],
      "stateMutability": "view",
      "type": "function",
      "constant": true
    },
    {
      "inputs": [],
      "name": "name",
      "outputs": [
        {
          "internalType": "string",
          "name": "",
          "type": "string"
        }
      ],
      "stateMutability": "pure",
      "type": "function",
      "constant": true
    },
    {
      "inputs": [],
      "name": "symbol",
      "outputs": [
        {
          "internalType": "string",
          "name": "",
          "type": "string"
        }
      ],
      "stateMutability": "pure",
      "type": "function",
      "constant": true
    },
    {
      "inputs": [
        {
          "internalType": "address",
          "name": "_owner",
          "type": "address"
        }
      ],
      "name": "balanceOf",
      "outputs": [
        {
          "internalType": "uint256",
          "name": "",
          "type": "uint256"
        }
      ],
      "stateMutability": "view",
      "type": "function",
      "constant": true
    },
    {
      "inputs": [
        {
          "internalType": "address",
          "name": "_to",
          "type": "address"
        },
        {
          "internalType": "uint256",
          "name": "_value",
          "type": "uint256"
        }
      ],
      "name": "transfer",
      "outputs": [
        {
          "internalType": "bool",
          "name": "",
          "type": "bool"
        }
      ],
      "stateMutability": "nonpayable",
      "type": "function"
    },
    {
      "inputs": [
        {
          "internalType": "address",
          "name": "_from",
          "type": "address"
        },
        {
          "internalType": "address",
          "name": "_to",
          "type": "address"
        },
        {
          "internalType": "uint256",
          "name": "_value",
          "type": "uint256"
        }
      ],
      "name": "transferFrom",
      "outputs": [
        {
          "internalType": "bool",
          "name": "",
          "type": "bool"
        }
      ],
      "stateMutability": "nonpayable",
      "type": "function"
    },
    {
      "inputs": [
        {
          "internalType": "address",
          "name": "_spender",
          "type": "address"
        },
        {
          "internalType": "uint256",
          "name": "_value",
          "type": "uint256"
        }
      ],
      "name": "approve",
      "outputs": [
        {
          "internalType": "bool",
          "name": "",
          "type": "bool"
        }
      ],
      "stateMutability": "nonpayable",
      "type": "function"
    },
    {
      "inputs": [
        {
          "internalType": "address",
          "name": "_owner",
          "type": "address"
        },
        {
          "internalType": "address",
          "name": "_spender",
          "type": "address"
        }
      ],
      "name": "allowance",
      "outputs": [
        {
          "internalType": "uint256",
          "name": "",
          "type": "uint256"
        }
      ],
      "stateMutability": "view",
      "type": "function",
      "constant": true
    },
    {
      "inputs": [
        {
          "internalType": "address",
          "name": "_spender",
          "type": "address"
        },
        {
          "internalType": "uint256",
          "name": "_value",
          "type": "uint256"
        }
      ],
      "name": "increaseAllowance",
      "outputs": [
        {
          "internalType": "bool",
          "name": "",
          "type": "bool"
        }
      ],
      "stateMutability": "nonpayable",
      "type": "function"
    },
    {
      "inputs": [
        {
          "internalType": "address",
          "name": "_spender",
          "type": "address"
        },
        {
          "internalType": "uint256",
          "name": "_value",
          "type": "uint256"
        }
      ],
      "name": "decreaseAllowance",
      "outputs": [
        {
          "internalType": "bool",
          "name": "",
          "type": "bool"
        }
      ],
      "stateMutability": "nonpayable",
      "type": "function"
    },
    {
      "inputs": [
        {
          "internalType": "uint256",
          "name": "_value",
          "type": "uint256"
        }
      ],
      "name": "burn",
      "outputs": [
        {
          "internalType": "bool",
          "name": "",
          "type": "bool"
        }
      ],
      "stateMutability": "nonpayable",
      "type": "function"
    },
    {
      "inputs": [
        {
          "internalType": "address",
          "name": "_from",
          "type": "address"
        },
        {
          "internalType": "uint256",
          "name": "_value",
          "type": "uint256"
        }
      ],
      "name": "burnFrom",
      "outputs": [
        {
          "internalType": "bool",
          "name": "",
          "type": "bool"
        }
      ],
      "stateMutability": "nonpayable",
      "type": "function"
    },
    {
      "inputs": [
        {
          "internalType": "address",
          "name": "_to",
          "type": "address"
        },
        {
          "internalType": "uint256",
          "name": "_value",
          "type": "uint256"
        }
      ],
      "name": "mint",
      "outputs": [
        {
          "internalType": "bool",
          "name": "",
          "type": "bool"
        }
      ],
      "stateMutability": "nonpayable",
      "type": "function"
    }
  ],
  "bytecode": "0x6080604052336000806101000a81548173ffffffffffffffffffffffffffffffffffffffff021916908373ffffffffffffffffffffffffffffffffffffffff1602179055506012600060146101000a81548160ff021916908360ff160217905550600060149054906101000a900460ff16600a6200007e91906200016f565b6103e86200008d9190620002ac565b6001553480156200009d57600080fd5b50600060149054906101000a900460ff16600a620000bc91906200016f565b6103e8620000cb9190620002ac565b600260003373ffffffffffffffffffffffffffffffffffffffff1673ffffffffffffffffffffffffffffffffffffffff1681526020019081526020016000208190555062000360565b6000808291508390505b600185111562000166578086048111156200013e576200013d62000324565b5b60018516156200014e5780820291505b80810290506200015e8562000353565b94506200011e565b94509492505050565b60006200017c826200030d565b9150620001898362000317565b9250620001b87fffffffffffffffffffffffffffffffffffffffffffffffffffffffffffffffff8484620001c0565b905092915050565b600082620001d25760019050620002a5565b81620001e25760009050620002a5565b8160018114620001fb576002811462000206576200023c565b6001915050620002a5565b60ff8411156200021b576200021a62000324565b5b8360020a91508482111562000235576200023462000324565b5b50620002a5565b5060208310610133831016604e8410600b8410161715620002765782820a90508381111562000270576200026f62000324565b5b620002a5565b62000285848484600162000114565b925090508184048111156200029f576200029e62000324565b5b81810290505b9392505050565b6000620002b9826200030d565b9150620002c6836200030d565b9250817fffffffffffffffffffffffffffffffffffffffffffffffffffffffffffffffff048311821515161562000302576200030162000324565b5b828202905092915050565b6000819050919050565b600060ff82169050919050565b7f4e487b7100000000000000000000000000000000000000000000000000000000600052601160045260246000fd5b60008160011c9050919050565b611d3480620003706000396000f3fe608060405234801561001057600080fd5b50600436106100f55760003560e01c806342966c6811610097578063a457c2d711610066578063a457c2d7146102c2578063a9059cbb146102f2578063dd62ed3e14610322578063f851a44014610352576100f5565b806342966c681461021457806370a082311461024457806379cc67901461027457806395d89b41146102a4576100f5565b806323b872dd116100d357806323b872dd14610166578063313ce5671461019657806339509351146101b457806340c10f19146101e4576100f5565b806306fdde03146100fa578063095ea7b31461011857806318160ddd14610148575b600080fd5b610102610370565b60405161010f91906117b6565b60405180910390f35b610132600480360381019061012d9190611563565b6103ad565b60405161013f919061179b565b60405180910390f35b61015061049f565b60405161015d91906118f8565b60405180910390f35b610180600480360381019061017b9190611510565b6104a5565b60405161018d919061179b565b60405180910390f35b61019e610684565b6040516101ab9190611913565b60405180910390f35b6101ce60048036038101906101c99190611563565b610697565b6040516101db919061179b565b60405180910390f35b6101fe60048036038101906101f99190611563565b61088c565b60405161020b919061179b565b60405180910390f35b61022e600480360381019061022991906115a3565b610931565b60405161023b919061179b565b60405180910390f35b61025e600480360381019061025991906114a3565b610946565b60405161026b91906118f8565b60405180910390f35b61028e60048036038101906102899190611563565b61098f565b60405161029b919061179b565b60405180910390f35b6102ac610a64565b6040516102b991906117b6565b60405180910390f35b6102dc60048036038101906102d79190611563565b610aa1565b6040516102e9919061179b565b60405180910390f35b61030c60048036038101906103079190611563565b610d55565b604051610319919061179b565b60405180910390f35b61033c600480360381019061033791906114d0565b610d6c565b60405161034991906118f8565b60405180910390f35b61035a610df3565b6040516103679190611780565b60405180910390f35b60606040518060400160405280600781526020017f5944546f6b656e00000000000000000000000000000000000000000000000000815250905090565b600081600360003373ffffffffffffffffffffffffffffffffffffffff1673ffffffffffffffffffffffffffffffffffffffff16815260200190815260200160002060008573ffffffffffffffffffffffffffffffffffffffff1673ffffffffffffffffffffffffffffffffffffffff168152602001908152602001600020819055508273ffffffffffffffffffffffffffffffffffffffff163373ffffffffffffffffffffffffffffffffffffffff167f8c5be1e5ebec7d5bd14f71427d1e84f3dd0314c0f7b2291e5b200ac8c7c3b9258460405161048d91906118f8565b60405180910390a36001905092915050565b60015481565b6000600360008573ffffffffffffffffffffffffffffffffffffffff1673ffffffffffffffffffffffffffffffffffffffff16815260200190815260200160002060003373ffffffffffffffffffffffffffffffffffffffff1673ffffffffffffffffffffffffffffffffffffffff16815260200190815260200160002054821115610566576040517f08c379a000000000000000000000000000000000000000000000000000000000815260040161055d90611878565b60405180910390fd5b610571848484610e17565b81600360008673ffffffffffffffffffffffffffffffffffffffff1673ffffffffffffffffffffffffffffffffffffffff16815260200190815260200160002060003373ffffffffffffffffffffffffffffffffffffffff1673ffffffffffffffffffffffffffffffffffffffff168152602001908152602001600020546105f991906119a0565b600360008673ffffffffffffffffffffffffffffffffffffffff1673ffffffffffffffffffffffffffffffffffffffff16815260200190815260200160002060003373ffffffffffffffffffffffffffffffffffffffff1673ffffffffffffffffffffffffffffffffffffffff16815260200190815260200160002081905550600190509392505050565b600060149054906101000a900460ff1681565b600081600360003373ffffffffffffffffffffffffffffffffffffffff1673ffffffffffffffffffffffffffffffffffffffff16815260200190815260200160002060008573ffffffffffffffffffffffffffffffffffffffff1673ffffffffffffffffffffffffffffffffffffffff16815260200190815260200160002054610721919061194a565b600360003373ffffffffffffffffffffffffffffffffffffffff1673ffffffffffffffffffffffffffffffffffffffff16815260200190815260200160002060008573ffffffffffffffffffffffffffffffffffffffff1673ffffffffffffffffffffffffffffffffffffffff168152602001908152602001600020819055508273ffffffffffffffffffffffffffffffffffffffff163373ffffffffffffffffffffffffffffffffffffffff167f8c5be1e5ebec7d5bd14f71427d1e84f3dd0314c0f7b2291e5b200ac8c7c3b925600360003373ffffffffffffffffffffffffffffffffffffffff1673ffffffffffffffffffffffffffffffffffffffff16815260200190815260200160002060008773ffffffffffffffffffffffffffffffffffffffff1673ffffffffffffffffffffffffffffffffffffffff1681526020019081526020016000205460405161087a91906118f8565b60405180910390a36001905092915050565b60008060009054906101000a900473ffffffffffffffffffffffffffffffffffffffff1673ffffffffffffffffffffffffffffffffffffffff163373ffffffffffffffffffffffffffffffffffffffff161461091d576040517f08c379a000000000000000000000000000000000000000000000000000000000815260040161091490611858565b60405180910390fd5b61092783836110ff565b6001905092915050565b600061093d338361127b565b60019050919050565b6000600260008373ffffffffffffffffffffffffffffffffffffffff1673ffffffffffffffffffffffffffffffffffffffff168152602001908152602001600020549050919050565b6000600360008473ffffffffffffffffffffffffffffffffffffffff1673ffffffffffffffffffffffffffffffffffffffff16815260200190815260200160002060003373ffffffffffffffffffffffffffffffffffffffff1673ffffffffffffffffffffffffffffffffffffffff16815260200190815260200160002054821115610a50576040517f08c379a0000000000000000000000000000000000000000000000000000000008152600401610a4790611878565b60405180910390fd5b610a5a838361127b565b6001905092915050565b60606040518060400160405280600381526020017f5944540000000000000000000000000000000000000000000000000000000000815250905090565b6000600360003373ffffffffffffffffffffffffffffffffffffffff1673ffffffffffffffffffffffffffffffffffffffff16815260200190815260200160002060008473ffffffffffffffffffffffffffffffffffffffff1673ffffffffffffffffffffffffffffffffffffffff16815260200190815260200160002054821115610b62576040517f08c379a0000000000000000000000000000000000000000000000000000000008152600401610b5990611818565b60405180910390fd5b81600360003373ffffffffffffffffffffffffffffffffffffffff1673ffffffffffffffffffffffffffffffffffffffff16815260200190815260200160002060008573ffffffffffffffffffffffffffffffffffffffff1673ffffffffffffffffffffffffffffffffffffffff16815260200190815260200160002054610bea91906119a0565b600360003373ffffffffffffffffffffffffffffffffffffffff1673ffffffffffffffffffffffffffffffffffffffff16815260200190815260200160002060008573ffffffffffffffffffffffffffffffffffffffff1673ffffffffffffffffffffffffffffffffffffffff168152602001908152602001600020819055508273ffffffffffffffffffffffffffffffffffffffff163373ffffffffffffffffffffffffffffffffffffffff167f8c5be1e5ebec7d5bd14f71427d1e84f3dd0314c0f7b2291e5b200ac8c7c3b925600360003373ffffffffffffffffffffffffffffffffffffffff1673ffffffffffffffffffffffffffffffffffffffff16815260200190815260200160002060008773ffffffffffffffffffffffffffffffffffffffff1673ffffffffffffffffffffffffffffffffffffffff16815260200190815260200160002054604051610d4391906118f8565b60405180910390a36001905092915050565b6000610d62338484610e17565b6001905092915050565b6000600360008473ffffffffffffffffffffffffffffffffffffffff1673ffffffffffffffffffffffffffffffffffffffff16815260200190815260200160002060008373ffffffffffffffffffffffffffffffffffffffff1673ffffffffffffffffffffffffffffffffffffffff16815260200190815260200160002054905092915050565b60008054906101000a900473ffffffffffffffffffffffffffffffffffffffff1681565b600073ffffffffffffffffffffffffffffffffffffffff168373ffffffffffffffffffffffffffffffffffffffff161415610e87576040517f08c379a0000000000000000000000000000000000000000000000000000000008152600401610e7e906118b8565b60405180910390fd5b600073ffffffffffffffffffffffffffffffffffffffff168273ffffffffffffffffffffffffffffffffffffffff161415610ef7576040517f08c379a0000000000000000000000000000000000000000000000000000000008152600401610eee906117d8565b60405180910390fd5b600260008473ffffffffffffffffffffffffffffffffffffffff1673ffffffffffffffffffffffffffffffffffffffff16815260200190815260200160002054811115610f79576040517f08c379a0000000000000000000000000000000000000000000000000000000008152600401610f7090611838565b60405180910390fd5b80600260008573ffffffffffffffffffffffffffffffffffffffff1673ffffffffffffffffffffffffffffffffffffffff16815260200190815260200160002054610fc491906119a0565b600260008573ffffffffffffffffffffffffffffffffffffffff1673ffffffffffffffffffffffffffffffffffffffff1681526020019081526020016000208190555080600260008473ffffffffffffffffffffffffffffffffffffffff1673ffffffffffffffffffffffffffffffffffffffff16815260200190815260200160002054611052919061194a565b600260008473ffffffffffffffffffffffffffffffffffffffff1673ffffffffffffffffffffffffffffffffffffffff168152602001908152602001600020819055508173ffffffffffffffffffffffffffffffffffffffff168373ffffffffffffffffffffffffffffffffffffffff167fddf252ad1be2c89b69c2b068fc378daa952ba7f163c4a11628f55a4df523b3ef836040516110f291906118f8565b60405180910390a3505050565b600073ffffffffffffffffffffffffffffffffffffffff168273ffffffffffffffffffffffffffffffffffffffff16141561116f576040517f08c379a0000000000000000000000000000000000000000000000000000000008152600401611166906118d8565b60405180910390fd5b8060015461117d919061194a565b60018190555080600260008473ffffffffffffffffffffffffffffffffffffffff1673ffffffffffffffffffffffffffffffffffffffff168152602001908152602001600020546111ce919061194a565b600260008473ffffffffffffffffffffffffffffffffffffffff1673ffffffffffffffffffffffffffffffffffffffff168152602001908152602001600020819055508173ffffffffffffffffffffffffffffffffffffffff16600073ffffffffffffffffffffffffffffffffffffffff167fddf252ad1be2c89b69c2b068fc378daa952ba7f163c4a11628f55a4df523b3ef8360405161126f91906118f8565b60405180910390a35050565b600073ffffffffffffffffffffffffffffffffffffffff168273ffffffffffffffffffffffffffffffffffffffff1614156112eb576040517f08c379a00000000000000000000000000000000000000000000000000000000081526004016112e290611898565b60405180910390fd5b600260008373ffffffffffffffffffffffffffffffffffffffff1673ffffffffffffffffffffffffffffffffffffffff1681526020019081526020016000205481111561136d576040517f08c379a0000000000000000000000000000000000000000000000000000000008152600401611364906117f8565b60405180910390fd5b80600260008473ffffffffffffffffffffffffffffffffffffffff1673ffffffffffffffffffffffffffffffffffffffff168152602001908152602001600020546113b891906119a0565b600260008473ffffffffffffffffffffffffffffffffffffffff1673ffffffffffffffffffffffffffffffffffffffff168152602001908152602001600020819055508060015461140991906119a0565b600181905550600073ffffffffffffffffffffffffffffffffffffffff168273ffffffffffffffffffffffffffffffffffffffff167fddf252ad1be2c89b69c2b068fc378daa952ba7f163c4a11628f55a4df523b3ef8360405161146d91906118f8565b60405180910390a35050565b60008135905061148881611cd0565b92915050565b60008135905061149d81611ce7565b92915050565b6000602082840312156114b9576114b8611a8b565b5b60006114c784828501611479565b91505092915050565b600080604083850312156114e7576114e6611a8b565b5b60006114f585828601611479565b925050602061150685828601611479565b9150509250929050565b60008060006060848603121561152957611528611a8b565b5b600061153786828701611479565b935050602061154886828701611479565b92505060406115598682870161148e565b9150509250925092565b6000806040838503121561157a57611579611a8b565b5b600061158885828601611479565b92505060206115998582860161148e565b9150509250929050565b6000602082840312156115b9576115b8611a8b565b5b60006115c78482850161148e565b91505092915050565b6115d9816119d4565b82525050565b6115e8816119e6565b82525050565b60006115f98261192e565b6116038185611939565b9350611613818560208601611a29565b61161c81611a90565b840191505092915050565b6000611634602383611939565b915061163f82611aa1565b604082019050919050565b6000611657602283611939565b915061166282611af0565b604082019050919050565b600061167a602083611939565b915061168582611b3f565b602082019050919050565b600061169d602683611939565b91506116a882611b68565b604082019050919050565b60006116c0601983611939565b91506116cb82611bb7565b602082019050919050565b60006116e3600b83611939565b91506116ee82611be0565b602082019050919050565b6000611706602183611939565b915061171182611c09565b604082019050919050565b6000611729602583611939565b915061173482611c58565b604082019050919050565b600061174c601f83611939565b915061175782611ca7565b602082019050919050565b61176b81611a12565b82525050565b61177a81611a1c565b82525050565b600060208201905061179560008301846115d0565b92915050565b60006020820190506117b060008301846115df565b92915050565b600060208201905081810360008301526117d081846115ee565b905092915050565b600060208201905081810360008301526117f181611627565b9050919050565b600060208201905081810360008301526118118161164a565b9050919050565b600060208201905081810360008301526118318161166d565b9050919050565b6000602082019050818103600083015261185181611690565b9050919050565b60006020820190508181036000830152611871816116b3565b9050919050565b60006020820190508181036000830152611891816116d6565b9050919050565b600060208201905081810360008301526118b1816116f9565b9050919050565b600060208201905081810360008301526118d18161171c565b9050919050565b600060208201905081810360008301526118f18161173f565b9050919050565b600060208201905061190d6000830184611762565b92915050565b60006020820190506119286000830184611771565b92915050565b600081519050919050565b600082825260208201905092915050565b600061195582611a12565b915061196083611a12565b9250827fffffffffffffffffffffffffffffffffffffffffffffffffffffffffffffffff0382111561199557611994611a5c565b5b828201905092915050565b60006119ab82611a12565b91506119b683611a12565b9250828210156119c9576119c8611a5c565b5b828203905092915050565b60006119df826119f2565b9050919050565b60008115159050919050565b600073ffffffffffffffffffffffffffffffffffffffff82169050919050565b6000819050919050565b600060ff82169050919050565b60005b83811015611a47578082015181840152602081019050611a2c565b83811115611a56576000848401525b50505050565b7f4e487b7100000000000000000000000000000000000000000000000000000000600052601160045260246000fd5b600080fd5b6000601f19601f8301169050919050565b7f45524332303a207472616e7366657220746f20746865207a65726f206164647260008201527f6573730000000000000000000000000000000000000000000000000000000000602082015250565b7f45524332303a206275726e20616d6f756e7420657863656564732062616c616e60008201527f6365000000000000000000000000000000000000000000000000000000000000602082015250565b7f416c6c6f776e6163652063616e2774206265206d616465206e65676174697665600082015250565b7f45524332303a207472616e7366657220616d6f756e742065786365656473206260008201527f616c616e63650000000000000000000000000000000000000000000000000000602082015250565b7f4f6e6c792061646d696e2063616e206d696e7420636f696e7300000000000000600082015250565b7f4e6f7420616c6c6f776564000000000000000000000000000000000000000000600082015250565b7f45524332303a206275726e2066726f6d20746865207a65726f2061646472657360008201527f7300000000000000000000000000000000000000000000000000000000000000602082015250565b7f45524332303a207472616e736665722066726f6d20746865207a65726f20616460008201527f6472657373000000000000000000000000000000000000000000000000000000602082015250565b7f45524332303a206d696e7420746f20746865207a65726f206164647265737300600082015250565b611cd9816119d4565b8114611ce457600080fd5b50565b611cf081611a12565b8114611cfb57600080fd5b5056fea264697066735822122017e61c6b0d161ece04e97d9a36c30eb2016c9ba4bff46081a04811224db94e0264736f6c63430008070033",
  "immutableReferences": {},
  "source": "// SPDX-License-Identifier: GPL-3.0\r\npragma solidity ^0.8.7;\r\n\r\ncontract YDToken {\r\n\taddress public admin = msg.sender;\r\n\tuint8 public decimals = 18;\r\n\tuint256 public totalSupply = 1000 * 10 ** decimals;\r\n\r\n\tmapping (address => uint256) private _balances;\r\n\tmapping (address => mapping(address => uint256)) private _allowed;\r\n\r\n\tevent Transfer (address indexed _from, address indexed _to, uint256 _value);\r\n\tevent Approval (address indexed _owner, address indexed _spender, uint256 _value);\r\n\r\n\tconstructor () {\r\n\t\t_balances[msg.sender] = 1000 * 10 ** decimals;\r\n\t}\r\n\r\n\tfunction _transfer (address _from, address _to, uint256 _value) internal {\r\n\t\trequire(_from != address(0), \"ERC20: transfer from the zero address\");\r\n\t\trequire(_to != address(0), \"ERC20: transfer to the zero address\");\r\n\t\trequire(_value <= _balances[_from], \"ERC20: transfer amount exceeds balance\");\r\n\r\n\t\t_balances[_from] = _balances[_from] - _value;\r\n\t\t_balances[_to] = _balances[_to] + _value;\r\n\t\temit Transfer(_from, _to, _value);\r\n\t}\r\n\r\n\tfunction _burn (address _from, uint256 _value) internal {\r\n\t\trequire(_from != address(0), \"ERC20: burn from the zero address\");\r\n\t\trequire(_value <= _balances[_from], \"ERC20: burn amount exceeds balance\");\r\n\r\n\t\t_balances[_from] = _balances[_from] - _value;\r\n\t\ttotalSupply = totalSupply - _value;\r\n\t\temit Transfer(_from, address(0), _value);\r\n\t}\r\n\r\n\tfunction _mint (address _to, uint256 _value) internal {\r\n\t\trequire(_to != address(0), \"ERC20: mint to the zero address\");\r\n\r\n\t\ttotalSupply = totalSupply + _value;\r\n\t\t_balances[_to] = _balances[_to] + _value;\r\n\t\temit Transfer(address(0), _to, _value);\r\n\t}\r\n\r\n\tfunction name () public pure returns (string memory) {\r\n\t\treturn \"YDToken\";\r\n\t}\r\n\r\n\tfunction symbol () public pure returns (string memory) {\r\n\t\treturn \"YDT\";\r\n\t}\r\n\r\n\tfunction balanceOf (address _owner) public view returns (uint256) {\r\n\t\treturn _balances[_owner];\r\n\t}\r\n\r\n\tfunction transfer (address _to, uint256 _value) public returns (bool) {\r\n\t\t_transfer(msg.sender, _to, _value);\r\n\r\n\t\treturn true;\r\n\t}\r\n\r\n\tfunction transferFrom (address _from, address _to, uint _value) public returns (bool) {\r\n\t\trequire(_value <= _allowed[_from][msg.sender], \"Not allowed\");\r\n\r\n\t\t_transfer(_from, _to, _value);\r\n\t\t_allowed[_from][msg.sender] = _allowed[_from][msg.sender] - _value;\r\n\r\n\t\treturn true;\r\n\t}\r\n\r\n\tfunction approve (address _spender, uint256 _value) public returns (bool) {\r\n\t\t_allowed[msg.sender][_spender] = _value;\r\n\t\temit Approval(msg.sender, _spender, _value);\r\n\r\n\t\treturn true;\r\n\t}\r\n\r\n\tfunction allowance (address _owner, address _spender) public view returns (uint256) {\r\n\t\treturn _allowed[_owner][_spender];\r\n\t}\r\n\r\n\tfunction increaseAllowance (address _spender, uint256 _value) public returns (bool) {\r\n\t\t_allowed[msg.sender][_spender] = _allowed[msg.sender][_spender] + _value;\r\n\t\temit Approval (msg.sender, _spender, _allowed[msg.sender][_spender]);\r\n\t\t\r\n\t\treturn true;\r\n\t}\r\n\r\n\tfunction decreaseAllowance (address _spender, uint256 _value) public returns (bool) {\r\n\t\trequire(_value <= _allowed[msg.sender][_spender], \"Allownace can't be made negative\");\r\n\r\n\t\t_allowed[msg.sender][_spender] = _allowed[msg.sender][_spender] - _value;\r\n\t\temit Approval (msg.sender, _spender, _allowed[msg.sender][_spender]);\r\n\r\n\t\treturn true;\r\n\t}\r\n\r\n\tfunction burn (uint256 _value) public returns (bool) {\r\n\t\t_burn(msg.sender, _value);\r\n\r\n\t\treturn true;\r\n\t}\r\n\r\n\tfunction burnFrom (address _from, uint256 _value) public returns (bool) {\r\n\t\trequire(_value <= _allowed[_from][msg.sender], \"Not allowed\");\r\n\t\t\r\n\t\t_burn(_from, _value);\r\n\r\n\t\treturn true;\r\n\t}\r\n\r\n\tfunction mint (address _to, uint256 _value) public returns (bool) {\r\n\t\trequire(msg.sender == admin, \"Only admin can mint coins\");\r\n\t\t\r\n\t\t_mint(_to, _value);\r\n\r\n\t\treturn true;\r\n\t}\r\n}",
  "sourcePath": "D:\\sem7\\bct-lab\\ydtoken\\contracts\\YDToken.sol",
  "compiler": {
    "name": "solc",
    "version": "0.8.7+commit.e28d00a7.Emscripten.clang"
  },
  "schemaVersion": "3.4.3",
  "updatedAt": "2021-10-01T08:41:43.013Z",
  "networkType": "ethereum",
  "devdoc": {
    "kind": "dev",
    "methods": {},
    "version": 1
  },
  "userdoc": {
    "kind": "user",
    "methods": {},
    "version": 1
  }
}